:1000000045C0000058C0000056C0000054C00000A9
:1000100052C0000050C000004EC000004CC00000A4
:100020004AC0000048C0000046C0000044C00000B4
:1000300042C0000040C000003EC000003CC00000C4
:100040003AC0000038C0000036C0000034C00000D4
:1000500032C0000030C000002EC000002CC00000E4
:100060002AC0000028C0000026C0000024C00000F4
:1000700022C0000020C000001EC000001CC0000004
:100080001AC0000018C0000016C0000011241FBED6
:10009000CFEFD0E4DEBFCDBF11E0A0E0B1E0E4EFF0
:1000A000F1E000E00BBF02C007900D92A630B1074F
:1000B000D9F755D09DC0A4CF88B98BB18F738BB9B8
:1000C0005D9A8DE08A95F1F700005D988DE08A9544
:1000D000F1F700000895EF92FF920F931F93CF93D3
:1000E000DF9300D000D01F92CDB7DEB785E0E0E00F
:1000F000F1E0DE01119601900D928A95E1F78E01F3
:100100000F5F1F4F7E0186E0E80EF11CF801819120
:100110008F01D2DF8FE99FE00197F1F700C0000067
:100120000E151F0599F70F900F900F900F900F90DD
:10013000DF91CF911F910F91FF90EF90089588B9B3
:100140005F985E9A5D9A8DE08A95F1F700008BB119
:10015000807C8BB98DE08A95F1F7000008958FEFD0
:1001600087B98AB1806E8AB91BB883E081B91092D1
:10017000CD0083E38093CC0088E18093C90086E0C2
:100180008093CA00A8DFD1E0C2E082E424D0D2B9D3
:100190002FEF34E38CE0215030408040E1F700C085
:1001A00000000CD0C2B99FEF24E33CE09150204006
:1001B0003040E1F700C00000C2DFE7CF8091C80007
:1001C000882334F0E8ECF0E012B880818823E4F76B
:1001D0008091CE0008959091C80095FD06C0E8EC8E
:1001E000F0E012B8908195FFFCCF8093CE00089587
:0401F000F894FFCFB1
:0601F400380F14010200A7
:00000001FF
