:100000000C943E000C9453000C9453000C94530039
:100010000C9453000C9453000C9453000C94530014
:100020000C9453000C9453000C9453000C94530004
:100030000C9453000C9453000C9453000C945300F4
:100040000C9453000C9453000C9453000C945300E4
:100050000C9453000C9453000C9453000C945300D4
:100060000C9453000C9453000C9453000C945300C4
:100070000C9453000C9453000C94530011241FBE95
:10008000CFEFD8E0DEBFCDBF11E0A0E0B1E0E8E007
:10009000F1E002C005900D92A030B107D9F70E949F
:1000A00055000C9482000C94000083E084B91092F7
:1000B000C50083E38093C40088E18093C10086E09B
:1000C0008093C2000E946C00823421F489E30E9474
:1000D0007A00289A15B8F6CF8091C00088233CF0AA
:1000E00092E0E0ECF0E095B980818823E4F780911C
:1000F000C6000895E0ECF0E0908195FFFDCF80937D
:08010000C6000895F894FFCF3A
:00000001FF
