:1000000045C0000060C000005EC000005CC0000091
:100010005AC0000058C0000056C0000054C0000084
:1000200052C0000050C000004EC000004CC0000094
:100030004AC0000048C0000046C0000044C00000A4
:1000400042C0000040C000003EC000003CC00000B4
:10005000F6C000004DC0000036C0000034C00000F3
:1000600032C0000030C000002EC000002CC00000D4
:100070002AC0000028C0000026C0000024C00000E4
:1000800022C0000020C000001EC0000011241FBEBE
:10009000CFEFD0E4DEBFCDBF11E0A0E0B1E0EEEBEA
:1000A000F2E000E00BBF02C007900D92A630B1074E
:1000B000D9F721E0A6E0B1E001C01D92A834B20753
:1000C000E1F787D0FAC09CCF1092C50083E38093FC
:1000D000C40088E98093C10086E08093C20008953F
:1000E000E0ECF0E080818823ECF78091C600089571
:1000F0001F920F920FB60F9211240BB60F922F93EF
:100100003F934F935F936F937F938F939F93AF939F
:10011000BF93EF93FF93E4DFFF91EF91BF91AF9116
:100120009F918F917F916F915F914F913F912F910F
:100130000F900BBE0F900FBE0F901F9018958091DF
:10014000C000882344F4A6ECB0E0E0ECF0E08C9131
:1001500080818823E4F3089582B98BB18F738BB9C2
:100160005D9A000000005D980895EF92FF920F9352
:100170001F93CF93DF9300D000D01F92CDB7DEB78F
:1001800085E0E0E0F1E0DE01119601900D928A95A4
:10019000E1F78E010F5F1F4F7E0186E0E80EF11C34
:1001A000F80181918F01D8DF83EF91E00197F1F79A
:1001B00000C000000E151F0599F70F900F900F90CB
:1001C0000F900F90DF91CF911F910F91FF90EF90C3
:1001D00008958FEF81B980EE8AB91BB881E084B9A8
:1001E000C4DF87EA91E60197F1F700C000006CDFF9
:1001F000789476DF809106018823D9F380E090E03F
:10020000089582B95F985E9A5D9A000000008BB1F4
:10021000807C8BB90895CF93DF93EC01888188238C
:1002200059F02196EEDF83EF91E00197F1F700C0DE
:10023000000089918111F6CFDF91CF9108951F922F
:100240000F920FB60F9211240BB60F922F933F937C
:100250004F935F936F937F938F939F93AF93BF93CE
:10026000EF93FF93809107019091C600E82FF0E093
:10027000E85FFE4F90838F5F803418F4809307010E
:1002800009C01092070188E091E0C5DF81E080930A
:10029000060155DFFF91EF91BF91AF919F918F9133
:1002A0007F916F915F914F913F912F910F900BBE76
:0E02B0000F900FBE0F901F901895F894FFCF7F
:0602BE00380F01021400DC
:00000001FF
