:1000000045C0000060C000005EC000005CC0000091
:100010005AC0000058C0000056C0000054C0000084
:1000200052C0000050C000004EC000004CC0000094
:100030004AC0000048C0000046C0000044C00000A4
:1000400042C0000040C000003EC000003CC00000B4
:100050003AC0000038C0000036C0000034C00000C4
:1000600032C0000030C000002EC000002CC00000D4
:100070002AC0000028C0000026C0000024C00000E4
:1000800022C0000020C000001EC0000011241FBEBE
:10009000CFEFD0E4DEBFCDBF11E0A0E0B1E0EEE4F1
:1000A000F3E000E00BBF02C007900D92AC31B10746
:1000B000D9F721E0ACE1B1E001C01D92AC31B2074B
:1000C000E1F71FD142C19CCFEF92FF920F931F9394
:1000D000CF93DF93CDB7DEB7A0970FB6F894DEBF0E
:1000E0000FBECDBF0F2EF5E0EF2EF1E0FF2EF02D6D
:1000F00000E010E01DD1F70191917F01891340C00C
:100100000F5F1F4F07301105A9F712D18C32E9F7A5
:10011000E12C00E010E00CD18C32C9F10230110565
:100120005CF4E1E0F0E0EC0FFD1FEE0DF11D8083CB
:10013000E39402C00F5F1F4F0230110561F7F12CED
:1001400002E010E011C0F4D08C3229F10430110526
:100150005CF4E1E1F0E0EC0FFD1FEF0DF11D808399
:10016000F39402C00F5F1F4FC8010297029758F324
:10017000FE01EE0DF11D1182FE01EF0DF11D118A40
:10018000BE016F5E7F4FCE0101967DD008C0023068
:10019000110581F6D4CF0430110521F7E9CFA096DF
:1001A0000FB6F894DEBF0FBECDBFDF91CF911F9188
:1001B0000F91FF90EF90089588B98BB18F738BB931
:1001C0005D9A8DE08A95F1F700005D988DE08A9543
:1001D000F1F700000895EF92FF920F931F93CF93D2
:1001E000DF9300D000D01F92CDB7DEB785E0E0E00E
:1001F000F1E0DE01119601900D928A95E1F78E01F2
:100200000F5F1F4F7E0186E0E80EF11CF80181911F
:100210008F01D2DF8FE99FE00197F1F700C0000066
:100220000E151F0599F70F900F900F900F900F90DC
:10023000DF91CF911F910F91FF90EF90089588B9B2
:100240005F985E9A5D9A8DE08A95F1F700008BB118
:10025000807C8BB98DE08A95F1F700000895CF93EB
:10026000DF93EC018881882359F02196E8DF8FE93C
:100270009FE00197F1F700C0000089918111F6CF4E
:10028000DF91CF9108950F931F93CF93DF938C014C
:10029000EB018DE091E0E3DF8FE99FE00197F1F75B
:1002A00000C00000C801DBDF8FE99FE00197F1F794
:1002B00000C0000082E191E0D2DF8FE99FE001976A
:1002C000F1F700C0000085E191E0C9DF8FE99FE010
:1002D0000197F1F700C00000CE01C1DF8FE99FE078
:1002E0000197F1F700C0000082E066DF8FEF9CE726
:1002F0000197F1F700C00000DF91CF911F910F919E
:1003000008958FEF87B980EE8AB91BB887E081B96D
:1003100062DF02D0D9DEFECF1092C50083E3809366
:10032000C40088E18093C10086E08093C2000895F4
:100330008091C000882334F0E0ECF0E012B88081B6
:0E0340008823E4F78091C6000895F894FFCF5B
:10034E00380F1401022447504747412C004C61746A
:0C035E003A002020004C6F6E673A00004F
:00000001FF
