:1000000045C0000060C000005EC000005CC0000091
:100010005AC0000058C0000056C0000054C0000084
:1000200052C0000050C000004EC000004CC0000094
:100030004AC0000048C0000046C0000044C00000A4
:1000400042C0000040C000003EC000003CC00000B4
:10005000A5C00000F3C00000C9C0000034C000000B
:1000600032C0000030C000002EC000002CC00000D4
:100070002AC0000028C0000026C0000024C00000E4
:1000800022C0000020C000001EC0000011241FBEBE
:10009000CFEFD0E4DEBFCDBF11E0A0E0B1E0ECEEE9
:1000A000F2E000E00BBF02C007900D92A231B10751
:1000B000D9F721E0A2E1B1E001C01D92AF31B20752
:1000C000E1F755D011C19CCF88B98BB18F738BB933
:1000D0005D9A8DE08A95F1F700005D988DE08A9534
:1000E000F1F700000895EF92FF920F931F93CF93C3
:1000F000DF9300D000D01F92CDB7DEB785E0ECE0F3
:10010000F1E0DE01119601900D928A95E1F78E01E2
:100110000F5F1F4F7E0186E0E80EF11CF801819110
:100120008F01D2DF8FE99FE00197F1F700C0000057
:100130000E151F0599F70F900F900F900F900F90CD
:10014000DF91CF911F910F91FF90EF90089588B9A3
:100150005F985E9A5D9A8DE08A95F1F700008BB109
:10016000807C8BB98DE08A95F1F7000008958FEFC0
:1001700087B990EE9AB91BB881B9B5DF2FEF80E748
:1001800092E0215080409040E1F700C000009FD0F5
:100190007894809100018093C600FFCF1F920F9248
:1001A0000FB60F9211240BB60F922F933F934F93DC
:1001B0005F936F937F938F939F93AF93BF93EF93CF
:1001C000FF9381E2C4DFFF91EF91BF91AF919F91C7
:1001D0008F917F916F915F914F913F912F910F90F0
:1001E0000BBE0F900FBE0F901F9018951F920F928D
:1001F0000FB60F9211240BB60F922F933F934F938C
:100200005F936F937F938F939F93AF93BF93EF937E
:10021000FF9389E69CDFFF91EF91BF91AF919F9192
:100220008F917F916F915F914F913F912F910F909F
:100230000BBE0F900FBE0F901F9018951F920F923C
:100240000FB60F9211240BB60F922F933F934F933B
:100250005F936F937F938F939F93AF93BF93EF932E
:10026000FF9383E674DF8091C00085FD07C091E0B5
:10027000E0ECF0E092B9808185FFFCCF12B8E0910C
:100280001201F0E0E050FF4F8081A6ECB0E08C93CB
:10029000E09112018C91F0E0ED5EFE4F8083809141
:1002A00012018F5F80931201FF91EF91BF91AF9187
:1002B0009F918F917F916F915F914F913F912F917E
:1002C0000F900BBE0F900FBE0F901F90189581E0FE
:1002D0008093C5008FE98093C40088EF8093C100AC
:0C02E00086E48093C2000895F894FFCFDC
:1002EC0042520200060000000500A100380E010277
:0202FC001400EC
:00000001FF
